:020000040800F2
:1000000000500020751B0008B11A0008B31A000840
:10001000B51A0008B71A0008B91A00080000000055
:10002000000000000000000000000000BB1A0008F3
:10003000BD1A000800000000BF1A0008C11A00081D
:10004000BD1B0008BD1B0008BD1B0008BD1B000830
:10005000BD1B0008BD1B0008BD1B0008BD1B000820
:10006000BD1B0008BD1B0008BD1B0008BD1B000810
:10007000BD1B0008BD1B0008BD1B0008BD1B000800
:10008000BD1B0008BD1B0008BD1B0008BD1B0008F0
:10009000BD1B0008BD1B0008BD1B0008BD1B0008E0
:1000A000BD1B0008BD1B0008BD1B0008BD1B0008D0
:1000B000C91A0008BD1B0008BD1B0008BD1B0008B5
:1000C000BD1B0008BD1B0008BD1B0008BD1B0008B0
:1000D000BD1B0008BD1B0008BD1B0008BD1B0008A0
:1000E000BD1B0008BD1B0008BD1B00080000000070
:1000F0000000000000000000000000000000000000
:0C01000000000000000000005FF808F1A3
:1001100010B5054C237833B9044B13B10448AFF341
:1001200000800123237010BDB809002000000000EA
:100130002885000808B5034B1BB103490348AFF3FA
:10014000008008BD00000000BC09002028850008D0
:10015000844641EA000313F0030349D1403A23D314
:100160000B6803604B6843608B688360CB68C36037
:100170000B6903614B6943618B698361CB69C3611F
:100180000B6A03624B6A43628B6A8362CB6AC36207
:100190000B6B03634B6B43638B6B8363CB6BC363EF
:1001A00040304031403ADBD230320BD30B68036031
:1001B0004B6843608B688360CB68C360103010313C
:1001C000103AF3D20C3205D351F8043B40F8043B0B
:1001D000043AF9D2043208D0D2071CBF11F8013B0F
:1001E00000F8013B01D30B8803806046704700BFD5
:1001F000082A13D38B07B1D010F00303AED0C3F19C
:100200000403D21ADB071CBF11F8013B00F8013BC5
:10021000A4D331F8023B20F8023B9FE7043AD9D33C
:10022000013A11F8013B00F8013BF9D20B78037059
:100230004B7843708B7883706046704781F0004143
:1002400002E000BF83F0004330B54FEA41044FEABB
:10025000430594EA050F08BF90EA020F1FBF54EA56
:10026000000C55EA020C7FEA645C7FEA655C00F0F2
:10027000E2804FEA5454D4EB5555B8BF6D420CDDC3
:100280002C4480EA020281EA030382EA000083EA46
:10029000010180EA020281EA0303362D88BF30BDE6
:1002A00011F0004F4FEA01314FF4801C4CEA11313C
:1002B00002D0404261EB410113F0004F4FEA03339B
:1002C0004CEA133302D0524263EB430394EA050F26
:1002D00000F0A780A4F10104D5F1200E0DDB02FA95
:1002E0000EFC22FA05F2801841F1000103FA0EF229
:1002F000801843FA05F359410EE0A5F120050EF1EF
:10030000200E012A03FA0EFC28BF4CF0020C43FA1F
:1003100005F3C01851EBE37101F0004507D54FF02C
:10032000000EDCF1000C7EEB00006EEB0101B1F57C
:10033000801F1BD3B1F5001F0CD349085FEA3000C2
:100340004FEA3C0C04F101044FEA445212F5800FCD
:1003500080F09A80BCF1004F08BF5FEA500C50F16A
:10036000000041EB045141EA050130BD5FEA4C0C4D
:10037000404141EB010111F4801FA4F10104E9D1D6
:1003800091F0000F04BF01460020B1FA81F308BFCD
:100390002033A3F10B03B3F120020CDA0C3208DD99
:1003A00002F1140CC2F10C0201FA0CF021FA02F174
:1003B0000CE002F11402D8BFC2F1200C01FA02F1E4
:1003C00020FA0CFCDCBF41EA0C019040E41AA2BF09
:1003D00001EB0451294330BD6FEA04041F3C1CDAD1
:1003E0000C340EDC04F11404C4F1200220FA04F0F1
:1003F00001FA02F340EA030021FA04F345EA03019B
:1004000030BDC4F10C04C4F1200220FA02F001FA5C
:1004100004F340EA0300294630BD21FA04F02946DE
:1004200030BD94F0000F83F4801306BF81F4801177
:100430000134013D4EE77FEA645C18BF7FEA655CEA
:1004400029D094EA050F08BF90EA020F05D054EABC
:10045000000C04BF1946104630BD91EA030F1EBFC1
:100460000021002030BD5FEA545C05D140004941C5
:1004700028BF41F0004130BD14F580043CBF01F5B8
:10048000801130BD01F0004545F0FE4141F470019E
:100490004FF0000030BD7FEA645C1ABF1946104679
:1004A0007FEA655C1CBF0B46024650EA013406BF7A
:1004B00052EA033591EA030F41F4002130BD00BF39
:1004C00090F0000F04BF0021704730B54FF48064F6
:1004D00004F132044FF000054FF0000150E700BF77
:1004E00090F0000F04BF0021704730B54FF48064D6
:1004F00004F1320410F0004548BF40424FF00001C3
:100500003EE700BF42004FEAE2014FEA31014FEA05
:1005100002701FBF12F07F4393F07F4F81F0605154
:10052000704732F07F4208BF704793F07F4F04BF9F
:1005300041F40021704730B54FF4607401F000457C
:1005400021F000411CE700BF50EA010208BF7047DC
:1005500030B54FF000050AE050EA010208BF7047CD
:1005600030B511F0004502D5404261EB41014FF436
:10057000806404F132045FEA915C3FF4D8AE4FF03E
:1005800003025FEADC0C18BF03325FEADC0C18BF21
:10059000033202EBDC02C2F1200300FA03FC20FA72
:1005A00002F001FA03FE40EA0E0021FA02F11444BF
:1005B000BDE600BF70B54FF0FF0C4CF4E06C1CEAD8
:1005C00011541DBF1CEA135594EA0C0F95EA0C0F49
:1005D00000F0DEF82C4481EA030621EA4C5123EABC
:1005E0004C5350EA013518BF52EA033541F48011EB
:1005F00043F4801338D0A0FB02CE4FF00005E1FB9E
:1006000002E506F00042E0FB03E54FF00006E1FBE7
:1006100003569CF0000F18BF4EF0010EA4F1FF042A
:10062000B6F5007F64F5407404D25FEA4E0E6D416A
:1006300046EB060642EAC62141EA55514FEAC5207B
:1006400040EA5E504FEACE2EB4F1FD0C88BFBCF5F7
:10065000E06F1ED8BEF1004F08BF5FEA500E50F1A8
:10066000000041EB045170BD06F0004646EA01016E
:1006700040EA020081EA0301B4EB5C04C2BFD4EBA0
:100680000C0541EA045170BD41F480114FF0000E99
:10069000013C00F3AB8014F1360FDEBF002001F007
:1006A000004170BDC4F10004203C35DA0C341BDC81
:1006B00004F11404C4F1200500FA05F320FA04F053
:1006C00001FA05F240EA020001F0004221F0004187
:1006D00010EBD37021FA04F642EB06015EEA430EFA
:1006E00008BF20EAD37070BDC4F10C04C4F120052A
:1006F00000FA04F320FA05F001FA04F240EA0200DD
:1007000001F0004110EBD37041F100015EEA430EAD
:1007100008BF20EAD37070BDC4F1200500FA05F2CD
:100720004EEA020E20FA04F301FA05F243EA02034C
:1007300021FA04F001F0004121FA04F220EA02005B
:1007400000EBD3705EEA430E08BF20EAD37070BDA1
:1007500094F0000F0FD101F00046400041EB010181
:1007600011F4801F08BF013CF7D041EA060195F063
:10077000000F18BF704703F00046520043EB03031D
:1007800013F4801F08BF013DF7D043EA060370470A
:1007900094EA0C0F0CEA135518BF95EA0C0F0CD015
:1007A00050EA410618BF52EA4306D1D181EA03015B
:1007B00001F000414FF0000070BD50EA410606BF55
:1007C0001046194652EA430619D094EA0C0F02D19A
:1007D00050EA013613D195EA0C0F05D152EA0336DF
:1007E0001CBF104619460AD181EA030101F00041FD
:1007F00041F0FE4141F470014FF0000070BD41F046
:10080000FE4141F4780170BD70B54FF0FF0C4CF41F
:10081000E06C1CEA11541DBF1CEA135594EA0C0F3E
:1008200095EA0C0F00F0A7F8A4EB050481EA030E8B
:1008300052EA03354FEA013100F088804FEA033372
:100840004FF0805545EA131343EA12634FEA022240
:1008500045EA111545EA10654FEA00260EF0004101
:100860009D4208BF964244F1FD0404F5407402D253
:100870005B084FEA3202B61A65EB03055B084FEAE4
:1008800032024FF480104FF4002CB6EB020E75EBE1
:10089000030E22BFB61A754640EA0C005B084FEA09
:1008A0003202B6EB020E75EB030E22BFB61A754686
:1008B00040EA5C005B084FEA3202B6EB020E75EBD1
:1008C000030E22BFB61A754640EA9C005B084FEA49
:1008D0003202B6EB020E75EB030E22BFB61A754656
:1008E00040EADC0055EA060E18D04FEA051545EA45
:1008F00016754FEA06164FEAC30343EA52734FEAEE
:10090000C2025FEA1C1CC0D111F4801F0BD141EA66
:1009100000014FF000004FF0004CB6E711F4801FCB
:1009200004BF01430020B4F1FD0C88BFBCF5E06FAB
:100930003FF6AFAEB5EB030C04BFB6EB020C5FEABB
:10094000500C50F1000041EB045170BD0EF0004E10
:100950004EEA113114EB5C04C2BFD4EB0C0541EA42
:10096000045170BD41F480114FF0000E013C90E63F
:1009700045EA060E8DE60CEA135594EA0C0F08BF03
:1009800095EA0C0F3FF43BAF94EA0C0F0AD150EA02
:1009900001347FF434AF95EA0C0F7FF425AF104695
:1009A00019462CE795EA0C0F06D152EA03353FF4BD
:1009B000FDAE1046194622E750EA410618BF52EA3A
:1009C00043067FF4C5AE50EA41047FF40DAF52EA0E
:1009D00043057FF4EBAE12E74FF0FF3C06E000BFAB
:1009E0004FF0010C02E000BF4FF0010C4DF804CDB8
:1009F0004FEA410C7FEA6C5C4FEA430C18BF7FEA78
:100A00006C5C1BD001B050EA410C0CBF52EA430CA5
:100A100091EA030F02BF90EA020F0020704710F125
:100A2000000F91EA030F58BF994208BF90422CBFB4
:100A3000D8176FEAE37040F0010070474FEA410CAD
:100A40007FEA6C5C02D150EA013C07D14FEA430CCB
:100A50007FEA6C5CD6D152EA033CD3D05DF8040B3C
:100A6000704700BF8446104662468C46194663466E
:100A700000E000BF01B5FFF7B7FF002848BF10F145
:100A8000000F01BD4DF808EDFFF7F4FF0CBF01208A
:100A900000205DF808FB00BF4DF808EDFFF7EAFF06
:100AA00034BF012000205DF808FB00BF4DF808EDC1
:100AB000FFF7E0FF94BF012000205DF808FB00BFB6
:100AC0004DF808EDFFF7CEFF94BF012000205DF840
:100AD00008FB00BF4DF808EDFFF7C4FF34BF01204D
:100AE00000205DF808FB00BF4FEA410C7FEA6C5C18
:100AF00002D150EA013C0AD14FEA430C7FEA6C5C18
:100B000002D152EA033C02D14FF0000070474FF08F
:100B1000010070474FEA410212F5001215D211D5BB
:100B20006FF47873B3EB625212D94FEAC12343F0EA
:100B3000004343EA505311F0004F23FA02F018BF6C
:100B4000404270474FF00000704750EA013005D135
:100B500011F0004008BF6FF0004070474FF00000F8
:100B6000704700BF53B94AB9002908BF00281CBF0D
:100B70004FF0FF314FF0FF3000F074B9ADF1080CC9
:100B80006DE904CE00F006F8DDF804E0DDE90223AB
:100B900004B070472DE9F0478C460446089E002BB0
:100BA0004BD18A42154667D9B2FA82F24AB1C2F1F4
:100BB000200701FA02F320FA07F7954047EA030CF1
:100BC00094404FEA154EBCFBFEF71FFA85F80EFB6A
:100BD00017C307FB08F9210C41EA0343994509D9DA
:100BE000EB1807F1FF3180F01C81994540F2198123
:100BF000023F2B44A3EB0903B3FBFEF00EFB1033C3
:100C000000FB08F1A4B244EA0344A14209D92C191B
:100C100000F1FF3380F00781A14240F204810238E5
:100C20002C4440EA07400027641A1EB10023D44038
:100C3000C6E900433946BDE8F0878B4209D9002E4A
:100C400000F0EC800027C6E9000138463946BDE8CF
:100C5000F087B3FA83F7002F48D18B4202D3824248
:100C600000F2FB80841A61EB030301209C46002EF6
:100C7000E0D0C6E9004CDDE702B9FFDEB2FA82F24D
:100C8000002A40F08F800127491B4FEA15481FFAC0
:100C900085F9B1FBF8FE08FB1E1109FB0EF04FEAC7
:100CA000144C4CEA0143984207D9EB180EF1FF317E
:100CB00002D2984200F2CD808E461B1AB3FBF8F0A8
:100CC00008FB103309FB00F9A4B244EA0344A14530
:100CD00007D92C1900F1FF3302D2A14500F2B680EA
:100CE0001846A4EB090440EA0E409EE7C7F1200530
:100CF000BB4022FA05FC4CEA030C21FA05F44FEA4A
:100D00001C4EB4FBFEF91FFA8CF80EFB194420FAB6
:100D100005F3B94009FB08FA19430B0C43EA0444F4
:100D2000A24502FA07F200FA07F30BD91CEB040400
:100D300009F1FF3080F08880A24540F28580A9F15A
:100D400002096444A4EB0A04B4FBFEF00EFB104459
:100D500000FB08FA89B241EA0444A24508D91CEB19
:100D6000040400F1FF316BD2A24569D90238644412
:100D700040EA0940A0FB0289A4EB0A044C45414625
:100D8000CE4654D351D0002E69D05A1A64EB0E04CB
:100D900004FA05F522FA07F3FC401D43C6E90054A6
:100DA000002747E79540C2F1200321FA03F04FEAFC
:100DB0001548B0FBF8F71FFA85F908FB170024FA6D
:100DC00003F3914007FB09FC0B43190C41EA004176
:100DD0008C4504FA02F407D9691807F1FF3031D2C3
:100DE0008C452FD9023F2944A1EB0C01B1FBF8F04F
:100DF00008FB101C00FB09FE99B241EA0C418E452C
:100E000007D9691800F1FF3318D28E4516D9023878
:100E10002944A1EB0E0140EA07473AE7374630463E
:100E200008E70F46E6E61846FBE64345ABD2B8EBCB
:100E3000020169EB0C0201389646A4E71846E8E780
:100E4000084695E70746CFE781467BE702382C4402
:100E500047E7AEF1020E2B442FE7384607E7374647
:100E6000E8E600BF704700BF60B1026A6AB1426A3B
:100E700072B1826A7AB143680BB1002070474FF0BB
:100E8000FF3070474FF0FF3070474FF0FF30704732
:100E90004FF0FF3070474FF0FF307047F0B5A1B012
:100EA0000E4615461C461B7B012B0AD0276AA27BE7
:100EB00063682A446946B84784F82C0020B90023A7
:100EC0000EE040F08000F1E76FF001000AE0A27B45
:100ED0001A4420A90A4412F8802CF25401339BB220
:100EE000AB42F4D321B0F0BD38B51C461B7B012BBF
:100EF00006D0656A6368A84784F82C0018B938BD25
:100F000000F07F00F5E76FF00100F8E710B582B060
:100F1000044600238DF80730FFF7A6FF034628B9E3
:100F2000227B012A05D00022A27353B1184602B0D9
:100F300010BDA27323460DF10701FFF7AFFF034673
:100F4000F3E7234601220DF107010020FFF7A6FF7A
:100F500003460028EAD1627B1AB99DF807101F29C1
:100F600007D0012A07D19DF807201E2A06D122703A
:100F7000DCE72170DAE76FF00203D7E76FF00203D6
:100F8000D4E7F8B507460D4616461C461846FFF747
:100F90006BFF40B955B166B1234632462946384603
:100FA000FFF77CFFF8BD4FF0FF30FBE74FF0FF305D
:100FB000F8E76FF00600F5E7F0B583B004460023CC
:100FC000ADF80430FFF750FF034610BBA57C677CEB
:100FD000267C6B1FDBB2072B09D800210A2F08D80B
:100FE0000020637B3BB9032E16D8002204E00121C8
:100FF000F4E70120F5E70022012B0FD049BB58BBD5
:101000006ABB2346022201A94020FFF7BAFF03462C
:1010100040B1184603B0F0BD0122EDE7032EEDD933
:101020000122EBE705F00F0545EA07158DF804509E
:101030009DF9053023F0030306F003061E438DF8E7
:1010400005602346022201A94020FFF74DFF034619
:10105000DFE76FF00703DCE76FF00703D9E76FF016
:101060000703D6E730B583B004460023ADF804305B
:10107000FFF7FAFE0546F8B9E37B03BB04238DF8BE
:1010800005302346012201A97C20FFF72DFF0546EC
:1010900090B9A36A616841F28830984723460122DB
:1010A0000DF105017D20FFF71FFF054620B9A36A5A
:1010B000616841F288309847284603B030BD032B61
:1010C00002D18DF80430DCE76FF00405F4E730B5A9
:1010D00083B004460D460846FFF7C6FE00BB14B3B6
:1010E0002B46062269461220FFF74BFF0246A0B9A5
:1010F0009DF800309DF8011043EA012323809DF8FC
:1011000002309DF8031043EA012363809DF8043008
:101110009DF8051043EA0123A380104603B030BDBB
:101120004FF0FF32F9E74FF0FF32F6E730B583B00A
:1011300005460C460023ADF80430FFF795FE08BBCA
:101140001CB32B46022201A92220FFF71AFF0246F8
:1011500098B99DF804109DF805305B0903EBC103B5
:10116000B3F5806F0CD3A3F50063C3EB431103EB1E
:10117000810303F5B34358332360104603B030BDF9
:101180001BB2F2E74FF0FF32F7E74FF0FF32F4E720
:1011900030B583B005460C460023ADF804308DF819
:1011A0000630FFF761FEB0B9C4B12B46032201A996
:1011B0001820FFF7E6FE024650B99DF804109DF88E
:1011C00005009DF806301B0443EA00230B4323600F
:1011D000104603B030BD4FF0FF32F9E74FF0FF3259
:1011E000F6E760B1026A6AB1426A72B1826A7AB1A4
:1011F00083680BB1002070474FF0FF3070474FF00D
:10120000FF3070474FF0FF3070474FF0FF307047AE
:101210004FF0FF30704738B51C461B7B012B06D0C2
:10122000256AA368A84784F82C0018B938BD40F097
:101230008000F5E76FF00100F8E72DE9F04705467B
:10124000894690461E461B7B012B21D0B8F1010F29
:1012500021D1746AB368424649462846A04782466F
:1012600086F82C00D0B9B8F1010F1CD900244445F0
:1012700019D2B368012209EB04012846776AB847FE
:1012800086F82C000135EDB258B90134E4B2EEE72E
:1012900000F07F05DAE74FF0000AE4E76FF0010A9B
:1012A000E1E76FF0010A5046BDE8F08710B582B063
:1012B000044600238DF80730FFF793FF034610B173
:1012C000184602B010BD234601220DF10701FFF7B9
:1012D000A2FF03460028F3D19DF807200F2A01D171
:1012E0006270EDE76FF00203EAE7F8B507460D46D6
:1012F00016461C461846FFF774FF40B955B166B153
:101300002346324629463846FFF785FFF8BD4FF0A1
:10131000FF30FBE74FF0FF30F8E76FF00600F5E72E
:10132000F8B507460D4616461C461846FFF759FF06
:10133000D0B9E5B1F6B12346324629463846FFF723
:101340007CFF0546E37C802B06D1A36AA1684FF49D
:10135000E17098472846F8BD202BF6D06BB9A36AF8
:10136000A16802209847F5E74FF0FF35F2E74FF00C
:10137000FF35EFE76FF00605ECE76FF00405E9E7EE
:1013800070B582B00446FFF72CFF0346A0B9A57DD7
:10139000267D072D13D80023042E12D80022002BFF
:1013A00040D1002A41D1234601220DF1070110202E
:1013B000FFF79BFF034630B1184602B070BD012312
:1013C000EAE70122EBE79DF8073023F00F035BB259
:1013D00005F00F051D4302A901F8015D2346012216
:1013E0001020FFF79DFF03460028E5D12346012288
:1013F0000DF107010F20FFF778FF03460028DBD12E
:101400009DF8073023F007035BB206F007061E4382
:1014100002A901F8016D234601220F20FFF780FF8A
:101420000346C9E76FF00703C6E76FF00703C3E79A
:1014300030B583B00546FFF7D4FE044610B1204610
:1014400003B030BD2B4601220DF106011120FFF73C
:101450004CFF04460028F2D1EB7C8DF80730802B3E
:1014600013D00122202B18D0F2B12B4601220DF10E
:1014700007011120FFF754FF04460028DFD1AB6AB3
:10148000A96847F230509847D9E79DF80620202AEE
:1014900001D00122E6E70022E4E79DF80630802B28
:1014A000E2D16FF00404CAE76FF00404C7E730B577
:1014B00083B004460D460846FFF793FE00BB14B305
:1014C0002B46062269460220FFF70FFF0246A0B90D
:1014D0009DF800309DF8011043EA012323809DF818
:1014E00002309DF8031043EA012363809DF8043025
:1014F0009DF8051043EA0123A380104603B030BDD8
:101500004FF0FF32F9E74FF0FF32F6E710B584B045
:101510001C784FF47A73029392B2019200910123E6
:1015200002462146024801F0E7F840B204B010BD7F
:10153000580A002010B584B01C784FF47A730293D7
:1015400092B201920091012302462146024801F025
:101550001FF840B204B010BD580A002008B50B4B6C
:10156000A3FB00239B094FF47A7202FB13033BB1E8
:10157000064BA3FB00308009013000F06BFB08BD77
:10158000024BA3FB00308009F7E700BFD34D621088
:1015900030B589B0002404940594069407941C4B3C
:1015A0009A6942F010029A619A6902F01002009260
:1015B000009A9A6942F020029A619A6902F0200228
:1015C0000192019A9A6942F004029A619A6902F0C2
:1015D00004020292029A9A6942F008029A619B6997
:1015E00003F008030393039B0A4D01223821284688
:1015F00000F09AFC382304931123059306940223E8
:10160000079304A9284600F0A3FB09B030BD00BF32
:10161000001002400008014000B583B002A941F863
:10162000040D4FF6FF730122034802F00FF80198F2
:1016300003B05DF804FB00BFF40A0020164B8342A0
:1016400000D0704710B586B0144C69462046FFF7AD
:101650009FFD01A92046FFF769FD214602A8FFF77B
:1016600036FD214604A8FFF722FFBDF90C3041F2F8
:10167000707101FB03F1002909DBC913084802F06E
:10168000C7F82021074800F055FC06B010BD01F551
:10169000FF417F31F1E700BFAC0A0020D4090020F0
:1016A000548500080008014072B6FEE708B50A48F4
:1016B0000A4B03600A4B436000238360C3604FF40E
:1016C0008042026143618361C361036200F086FE70
:1016D00000B908BDFFF7E8FF040A002000540040ED
:1016E000A086010008B50A480A4B03600A4B436014
:1016F00000238360C3604FF48042026143618361D1
:10170000C361036200F06AFE00B908BDFFF7CCFFB9
:10171000580A002000580040A086010008B50A4879
:101720000A4B03604FF4E133436000238360C360DE
:1017300003610C2242618361C36101F058FF00B96B
:1017400008BDFFF7B1FF00BFF40A002000380140D8
:1017500000B587B00023029303930493059300938D
:10176000019315484FF08042026041F61F424260EB
:10177000836040F2E732C26003618023836101F03D
:10178000E3FD98B906A94FF4805341F8103D0A488B
:1017900001F010FE60B900230093019369460648EA
:1017A00001F076FE30B907B05DF804FBFFF77CFF6F
:1017B000FFF77AFFFFF778FFAC0A002000B591B081
:1017C0000023089309930B930C93019302930393C3
:1017D00004930593012206924FF4803307930A92F3
:1017E00002220D920E934FF4E0130F9306A801F01E
:1017F00033F980B90F23019302210291002303934F
:101800004FF480620492059301A801F065FB20B9B2
:1018100011B05DF804FBFFF747FFFFF745FF00003D
:1018200070B582B000F0F2F9FFF7C8FFFFF7B0FE25
:10183000FFF73CFFFFF756FFFFF770FFFFF788FF4A
:101840002C4801F051FC30238DF80730D2238DF85D
:101850000630294C0DF1070363600DF10603A36008
:1018600000232373254B2362254B6362254BA36220
:10187000012363732046FFF749FB05462046FFF727
:1018800015FD05B998B1204C00221021204600F02A
:101890004BFB4FF4967000F0DDF901221021204639
:1018A00000F042FB4FF4967000F0D4F9EBE7002211
:1018B000082100F1804000F5843000F035FB0A2358
:1018C00063740823A374012525740026E67320465B
:1018D000FFF7C8FB2046FFF76FFBE6742046FFF7D3
:1018E000A7FD0423A375257563752046FFF748FD02
:1018F000FEE700BFAC0A0020D40900200D15000847
:10190000351500085D1500080008014082B00E4B37
:101910009A6942F001029A619A6902F0010200920A
:10192000009ADA6942F08052DA61DB6903F0805391
:101930000193019B054A536823F0E06343F0007371
:10194000536002B0704700BF001002400000014029
:1019500010B588B00023049305930693079303689A
:10196000224A934204D0224A93421FD008B010BDAD
:10197000204CA36943F00803A361A36903F00803A3
:101980000093009BC0230493122305930323079322
:1019900004A9194800F0DCF9E36943F40013E3619A
:1019A000E36903F400130193019BDFE7114CA36982
:1019B00043F00803A361A36903F008030293029BA9
:1019C0004FF440630493122305930323079304A960
:1019D000094800F0BDF9E36943F48003E361E3697A
:1019E00003F480030393039BC0E700BF005400404F
:1019F0000058004000100240000C01400368B3F1A1
:101A0000804F00D0704700B583B003F50433DA6926
:101A100042F00102DA61DB6903F001030193019BEB
:101A2000002211461C2000F03BF91C2000F06CF94C
:101A300003B05DF804FB000010B586B000230293EC
:101A40000393049305930268174B9A4201D006B0A2
:101A500010BD03F558439A6942F480429A619A692D
:101A600002F480420092009A9A6942F004029A615C
:101A70009B6903F004030193019B4FF400730293ED
:101A80000223039303230593084C02A9204600F088
:101A90005FF94FF48063029300230393049302A938
:101AA000204600F055F9D2E7003801400008014017
:101AB000FEE7FEE7FEE7FEE7FEE770477047704788
:101AC00008B500F0B5F808BD08B5024801F044FBC0
:101AD00008BD00BFAC0A002070B50D4616460024B4
:101AE00004E0AFF30080287001340135B442F8DB24
:101AF000304670BD70B51646002405E04D1C0878D0
:101B0000FFF78AFD01342946B442F7DB304670BD49
:101B10004FF0FF3070474FF400534B600020704788
:101B2000012070470020704710B503460C4A0D494C
:101B30000D48006840B10C4800680344521A9342B3
:101B400006D8094A136010BD0748084C0460F2E744
:101B500001F0EAFD0C2303604FF0FF30F3E700BF14
:101B60000050002000040000380B0020A00B0020D3
:101B7000704700000C480D490D4A002302E0D4587C
:101B8000C4500433C4188C42F9D30A4A0A4C0023C7
:101B900001E013600432A242FBD3FFF7E9FF01F03A
:101BA000C9FDFFF73DFE704700000020B809002086
:101BB00014880008B80900209C0B0020FEE70000F4
:101BC00010B504460E4B18784FF47A73B3FBF0F35C
:101BD0000C4A1068B0FBF3F000F0A4F868B90F2CC1
:101BE00001D901200AE0002221464FF0FF3000F029
:101BF00057F8054B1C60002000E0012010BD00BF1D
:101C000004000020000000200800002008B5074A5A
:101C1000136843F010031360032000F02FF80F2027
:101C2000FFF7CEFFFFF772FE002008BD0020024044
:101C3000034A1168034B1B780B441360704700BFC5
:101C40003C0B002004000020014B1868704700BFC7
:101C50003C0B002038B50446FFF7F6FF0546B4F10B
:101C6000FF3F02D0044B1B781C44FFF7EDFF401BE5
:101C7000A042FAD338BD00BF04000020074AD36851
:101C800023F4E0631B041B0C000200F4E060184323
:101C900040F0BF6040F40030D060704700ED00E0DD
:101CA00030B4174BDB68C3F30223C3F10704042CE1
:101CB00028BF04241D1D062D18D9033B4FF0FF3506
:101CC00005FA04F421EA0401994005FA03F322EA33
:101CD0000303194300280BDB0901C9B200F160407E
:101CE00000F5614080F8001330BC70470023E5E741
:101CF00000F00F000901C9B2024B1954F4E700BF0C
:101D000000ED00E014ED00E0002807DB00F01F020A
:101D1000400901239340024A42F82030704700BF37
:101D200000E100E00138B0F1807F0AD2064B586034
:101D3000064AF02182F823100020986007221A60DA
:101D400070470120704700BF10E000E000ED00E0A8
:101D5000F0B482B000263246A2E0002D5AD0012D08
:101D600000D1CE68FF2B69D88446FF2B69D8950037
:101D7000DCF800400F27AF4024EA070406FA05F517
:101D80002C43CCF800404C6814F0805F00F0878052
:101D90005F4CA56945F00105A561A46904F0010443
:101DA0000194019C9508AF1C5A4C54F8274002F04E
:101DB0000307BF004FF00F0C0CFA07FC24EA0C0CD1
:101DC000554CA04243D004F58064A04200F08180CD
:101DD00004F58064A0427ED004F58064A04234D033
:101DE000042435E04D4FBD4214D00BD94C4FBD42B9
:101DF00010D007F58037BD420CD0A7F58017BD4243
:101E0000B0D107E0A7F58017BD4203D007F58037B2
:101E1000BD42A7D18D687DB1012D08D0446108264F
:101E2000A0E7CE6808369DE7CE680C369AE70461D5
:101E3000082697E7002695E7042693E700F1040CAF
:101E400093E7A2F10805AD0092E7032400E0002427
:101E5000BC4044EA0C0402352E4F47F825404C683C
:101E600014F4803F39D02F4D2C681C432C604C68F3
:101E700014F4003F37D02B4D6C681C436C604C68E9
:101E800014F4801F35D0274DAC681C43AC604C68FF
:101E900014F4001F33D0234DEC682343EB60013270
:101EA0000B6833FA02F430D00124944023409C4262
:101EB000F5D14D68122DB7D094D8022DB1D07FF650
:101EC0004CAF032DB6D0112D7FF44CAFCE68043645
:101ED00048E70124BCE70224BAE7124D2C6824EA43
:101EE00003042C60C3E70F4D6C6824EA03046C60A4
:101EF000C5E70C4DAC6824EA0304AC60C7E7094DA4
:101F0000EC6824EA0303EB60C9E702B0F0BC704759
:101F100000100240000001400008014000002110B4
:101F2000000031100004014012B90904016170473A
:101F300001617047C36801EA030221EA030141EA33
:101F400002410161704703685A6912F4806F11D031
:101F50006FF480625A6100230363202280F83D20E1
:101F600080F83E30026C42F00402026480F83C309B
:101F70000120704700207047F8B506460C4617460A
:101F80001D4622E0FFF760FE069BC01AA84200D85B
:101F9000DDB900233363202286F83D2086F83E30E9
:101FA000326C42F02002326486F83C3001201AE0A4
:101FB00033685B6924EA03039BB2B3FA83F35B09DA
:101FC0009F420FD1B5F1FF3FDCD1C4F30743012B92
:101FD000EED033689B6924EA03039BB2B3FA83F320
:101FE0005B09EDE70020F8BDF8B504460D4616463E
:101FF0001F463CE01A6842F400721A6023686FF4CE
:1020000080625A6100232363202284F83D2084F8F3
:102010003E30226C42F00402226484F83C300120FD
:1020200033E0FFF711FEC01BB04200D8FEB9002319
:102030002363202284F83D2084F83E30226C42F055
:102040002002226484F83C3001201EE023685B6992
:1020500025EA03039BB2003318BF0123A3B1236811
:102060005A6912F4806FC5D1B6F1FF3FD9D1C5F3DB
:102070000743012BEAD023689B6925EA03039BB23F
:10208000003318BF0123E9E70020F8BD70B504460E
:102090000D46164623685B6913F0800F1CD120465D
:1020A000FFF751FFD0B9B5F1FF3FF3D0FFF7CCFDFB
:1020B000801BA84201D8002DECD1002323632022ED
:1020C00084F83D2084F83E30226C42F020022264E5
:1020D00084F83C30012000E0002070BD0120FCE7C6
:1020E0002DE9F04184B00446884616461F460B9DF4
:1020F0000268136843F48073136000950A9B002202
:102100004FF00111FFF738FF60B123681B6813F42B
:10211000807F4FD04FF4007323640323184604B02C
:10212000BDE8F081226808F0FE0313612B460A9A8D
:1021300021492046FFF758FF08B10123EEE70023AD
:10214000039323685A6903929B690393039B2A466E
:102150000A992046FFF79AFF034658B1236C042BD7
:1021600001D00123DAE72268136843F40073136097
:102170000123D3E7012F0ED02368320A1A612A46C1
:102180000A992046FFF782FF034678B1236C042B9F
:1021900005D00123C2E72268F6B21661BEE72268C5
:1021A000136843F4007313600123B7E72268F6B2A3
:1021B0001661B3E70323B1E7020001002DE9F04106
:1021C00084B004460E46174698460B9D0268136875
:1021D00043F4806313600268136843F480731360F0
:1021E00000950A9B00224FF00111FFF7C5FE68B170
:1021F00023681B6813F4807F00F089804FF400731C
:1022000023640323184604B0BDE8F081F6B22368C6
:1022100006F0FE021A612B460A9A3F492046FFF754
:10222000E3FE08B10123EDE70023039323685A6915
:1022300003929B690393039B2A460A992046FFF762
:1022400025FF58B1236C042B01D00123DAE7226863
:10225000136843F4007313600123D3E7B8F1010F4F
:102260000DD12368FFB21F612A460A992046FFF765
:102270000DFF20B3236C042B1AD00123C2E723687F
:102280003A0A1A612A460A992046FFF7FFFE58B11A
:10229000236C042B01D00123B4E72268136843F4B4
:1022A000007313600123ADE72368FFB21F61DBE712
:1022B0002268136843F4007313600123A2E72268C5
:1022C000136843F48073136000950A9B00224FF05B
:1022D00001112046FFF750FE48B123681B6813F434
:1022E000807F16D04FF40073236403238AE72368AA
:1022F00046F001061E612B460A9A07492046FFF761
:1023000073FE034600283FF47DAF01237AE70323E1
:1023100078E7032376E700BF0200010070B50446AA
:102320000D46164623685B6913F0040F1CD1204646
:10233000FFF709FED0B9B5F1FF3FF3D0FFF784FCFA
:10234000801BA84201D8002DECD10023236320225A
:1023500084F83D2084F83E30226C42F02002226452
:1023600084F83C30012000E0002070BD0120FCE733
:1023700070B505460C4616462B685A6912F0400F98
:1023800029D15A6912F0100F15D1FFF75DFC801B9F
:10239000A04201D8002CEFD100232B63202285F826
:1023A0003D2085F83E302A6C42F020022A6485F8F0
:1023B0003C30012070BD6FF010025A6100232B6386
:1023C000202285F83D2085F83E302A6C2A6485F865
:1023D0003C300120EEE70020ECE70000002800F090
:1023E000C880F8B5044690F83D30002B75D0242302
:1023F00084F83D302268136823F0010313602268DB
:10240000136843F4004313602268136823F4004305
:10241000136000F01BFE6268584B9A4262D8584B1A
:1024200098428CBF00230123002B40F0A480554B21
:10243000A3FB00239B0C21684A6822F03F021A4349
:102440004A6025682A6A22F03F0266684B498E423C
:102450004ED8013313432B622568E96921F44F41BB
:1024600021F0FF016368454A93424BD801385B0075
:10247000B0FBF3F30133C3F30B03042B38BF042386
:102480000B43EB6121680B6823F0C003E269206A0B
:10249000024313430B6021688B6823F4034323F04A
:1024A000FF032269E068024313438B602168CB6815
:1024B00023F0FF036269A06902431343CB602268E3
:1024C000136843F00103136000202064202384F884
:1024D0003D30206384F83E00F8BD80F83C30FFF7C3
:1024E00037FA84E7284B98428CBF002301239BE7EF
:1024F0004FF4967101FB03F32449A1FB03139B09DD
:102500000133A7E7A268BAB9461E03EB4307B6FB3F
:10251000F7F60136C6F30B06B6FA86F6760936BB31
:10252000C2B9013803EB4303B0FBF3F30133C3F348
:102530000B0242F40043A3E7461E03EB830707EBBD
:102540008707B6FBF7F60136C6F30B06B6FA86F632
:102550007609E4E7013803EB830303EB8303B0FB65
:10256000F3F20132C2F30B0242F4404388E7012345
:1025700086E7012070470120AEE700BFA08601007A
:102580007F841E0083DE1B43FF083D00D34D621095
:102590002DE9F04182B004460E4617469846FFF7F3
:1025A00053FB94F83D30DBB2202B04D002231846B5
:1025B00002B0BDE8F08105460090192301224C4984
:1025C0002046FFF7D9FC002840F08B8094F83C307F
:1025D000012B00F08880012384F83C3023681A68BE
:1025E00012F0010F03D11A6842F001021A6022684A
:1025F000136823F400631360212384F83D304023E3
:1026000084F83E3000232364089B6362BDF82430C5
:102610006385638D2385374BE36201950A9B0093A5
:1026200043463A4631462046FFF75AFD00285CD122
:10263000238D002B34D02A460A992046FFF726FD29
:1026400010BB626A236812781A61616A4B1C63626C
:10265000238D013B9BB22385628D013A92B2628544
:102660002268506910F0040FE2D0002BE0D04B78C4
:102670001361636A01336362238D013B2385638D9C
:10268000013B9BB26385D3E7236C042B01D001236C
:102690008DE72268136843F400731360012386E713
:1026A0002A460A992046FFF739FE034658B1236CA3
:1026B000042B01D001237AE72268136843F40073E6
:1026C0001360012373E721680A6842F400720A600C
:1026D000202284F83D20002284F83E2084F83C200B
:1026E00065E7022363E7022361E701235FE700BF99
:1026F000020010000000FFFF2DE9F04188B0044601
:102700000D461746984600230793FFF79DFA94F865
:102710003D30DBB2202B04D00225284608B0BDE8AE
:10272000F08106460090192301227F492046FFF7D9
:1027300023FC002840F0698194F83C30012B00F024
:102740006681012384F83C3023681A6812F0010F77
:1027500003D11A6842F001021A602268136823F458
:1027600000631360222384F83D30402384F83E3018
:10277000002323640E9B6362BDF83C306385638D48
:1027800023856A4BE3620196109B009343463A46C9
:1027900029462046FFF712FD0546002840F0398102
:1027A000238D5BB9039323685A6903929A69039254
:1027B000039A1A6842F400721A60E5E0012B0FD008
:1027C000022B21D02268136843F480631360002336
:1027D000069323685A6906929B690693069BD3E089
:1027E0002268136823F48063136072B60023049395
:1027F00023685A6904929A690492049A1A6842F406
:1028000000721A6062B6BFE02268136843F4006386
:10281000136072B60023059323685A6905929A697A
:102820000592059A1A6822F480621A6062B6ABE0DB
:10283000324610992046FFF79BFD002840F0EB80C0
:1028400023681A69636A1A70636A01336362238DAD
:10285000013B2385638D013B9BB2638594E0009629
:10286000109B002232492046FFF786FB002840F0EB
:10287000D6802268136823F48063136072B62368DD
:102880001A69636A1A70636A01336362238D013BBC
:102890002385638D013B9BB26385264B1B68DB0858
:1028A000254AA2FB03231B0A03EB8303C3EBC303E9
:1028B0000793079B013B0793079B33B323685A6930
:1028C00012F0040FF5D01A6842F400721A602368FF
:1028D0001A69636A1A70636A01336362238D013B6C
:1028E0002385638D013B9BB2638562B623681A69B9
:1028F000636A1A70636A01336362238D013B238527
:10290000638D013B9BB263853EE02363202284F804
:102910003D2084F83E30226C42F02002226462B6F0
:1029200084F83C300125F8E6020010000000FFFFAB
:10293000040001000000002089B5F8143246109907
:102940002046FFF715FD00286BD123681A69636ADA
:102950001A70626A531C6362238D013B2385638D69
:10296000013B9BB263852368596911F0040F0BD0BA
:102970001B695370636A01336362238D013B2385B6
:10298000638D013B9BB26385238D002B34D0032BD9
:10299000D4D8012B3FF44CAF022B7FF460AF0096EC
:1029A000109B002220492046FFF7E6FA002834D188
:1029B00072B62268136843F40073136023681A69BF
:1029C000636A1A70636A01336362238D013B238556
:1029D000638D013B9BB2638562B623681A69636AA3
:1029E0001A70636A01336362238D013B2385638D13
:1029F000013B9BB26385C7E7202384F83D30002369
:102A000084F83E3084F83C3087E6022585E60225CE
:102A100083E6012581E601257FE601257DE6012586
:102A20007BE6012579E600BF0400010082B0084B77
:102A30001B68084AA2FB03235B0A00FB03F001901A
:102A400000BF019B5A1E0192002BF9D102B07047C2
:102A500000000020D34D6210002800F0F58170B511
:102A600082B00446036813F0010F2CD0AB4B5B68B7
:102A700003F00C03042B1DD0A84B5B6803F00C0380
:102A8000082B12D06368B3F5803F41D0002B55D19D
:102A900003F1804303F504331A6822F480321A608C
:102AA0001A6822F480221A6037E09C4B5B6813F4AA
:102AB000803FE7D0994B1B6813F4003F03D0636855
:102AC000002B00F0C381236813F0020F76D0934BE4
:102AD0005B6813F00C0F5FD0904B5B6803F00C0346
:102AE000082B54D02369002B00F08A808C4B0122E4
:102AF0001A60FFF7A9F80546884B1B6813F0020F10
:102B000075D1FFF7A1F8401B0228F5D90320A0E1F9
:102B1000824A136843F480331360636843B3FFF75A
:102B200093F805467D4B1B6813F4003FCBD1FFF7AC
:102B30008BF8401B6428F5D903208AE1B3F5A02F58
:102B400009D0764B1A6822F480321A601A6822F48F
:102B500080221A60E1E703F18043A3F53C331A6851
:102B600042F480221A601A6842F480321A60D4E774
:102B7000FFF76AF80546694B1B6813F4003FA2D0C3
:102B8000FFF762F8401B6428F5D9032061E1634B2D
:102B90005B6813F4803FA5D1604B1B6813F0020FF4
:102BA00004D02369012B01D0012052E15B4A136854
:102BB00023F0F803616943EAC1031360236813F04B
:102BC000080F32D0A369002B5BD0564B01221A604C
:102BD000FFF73AF80546514B5B6A13F0020F21D11B
:102BE000FFF732F8401B0228F5D9032031E14B4AA8
:102BF000136823F0F803616943EAC1031360DDE75A
:102C0000474B00221A60FFF71FF80546434B1B682D
:102C100013F0020FD2D0FFF717F8401B0228F5D9A6
:102C2000032016E10120FFF701FF236813F0040FD2
:102C300000F09880394BDB6913F0805F33D1374B5C
:102C4000DA6942F08052DA61DB6903F08053019364
:102C5000019B0125344B1B6813F4807F25D0E3686A
:102C6000012B36D0002B4CD103F1804303F5043304
:102C70001A6A22F001021A621A6A22F004021A6227
:102C80002CE0284B00221A60FEF7DEFF0546234B9E
:102C90005B6A13F0020FC8D0FEF7D6FF401B022874
:102CA000F5D90320D5E00025D4E71F4A136843F483
:102CB00080731360FEF7C8FF06461B4B1B6813F4B6
:102CC000807FCCD1FEF7C0FF801B6428F5D903209C
:102CD000BFE0124A136A43F001031362E3687BB357
:102CE000FEF7B2FF06460D4B1B6A13F0020F38D1F8
:102CF000FEF7AAFF801B41F288339842F3D90320E4
:102D0000A7E0052B12D0054B1A6A22F001021A62C5
:102D10001A6A22F004021A62E0E700BF00100240C3
:102D20000000424280044242007000404C4B1A6A4C
:102D300042F004021A621A6A42F001021A62CDE7F6
:102D4000FEF782FF0646464B1B6A13F0020F08D0BF
:102D5000FEF77AFF801B41F288339842F3D90320B3
:102D600077E0E5B9E369002B72D03D4A526802F082
:102D70000C02082A56D0022B17D03A4B00221A60B8
:102D8000FEF762FF0446364B1B6813F0007F47D006
:102D9000FEF75AFF001B0228F5D9032059E0304AFC
:102DA000D36923F08053D361DCE72E4B00221A60F5
:102DB000FEF74AFF05462A4B1B6813F0007F06D03A
:102DC000FEF742FF401B0228F5D9032041E0236AA9
:102DD000B3F5803F1AD022494B6823F47413226A5A
:102DE000606A024313434B601E4B01221A60FEF7D8
:102DF0002BFF04461A4B1B6813F0007F0ED1FEF721
:102E000023FF001B0228F5D9032022E0144A53684F
:102E100023F40033A1680B435360DCE7002018E083
:102E2000002016E0012B16D00D4B5B6803F48031B7
:102E3000226A914201D001200BE003F47013626A10
:102E400093420AD0012004E001207047012000E0F5
:102E5000002002B070BD0120FBE70020F9E700BFB1
:102E6000001002406000424210B487B0164C94E853
:102E70000F000DF1180C0CE90F00238AADF8043097
:102E8000124B5B6803F00C02082A1AD1C3F3834289
:102E9000624412F8102C13F4803F05D10C4800FB5B
:102EA00002F007B010BC7047084B5B68C3F34043A7
:102EB000634413F8143C074800FB02F0B0FBF3F046
:102EC000EFE70448EDE700BF40850008001002402E
:102ED00000093D0000127A00002800F0A38070B5C0
:102EE0000446524B1B6803F007038B420CD24F4A37
:102EF000136823F007030B431360136803F0070301
:102F00008B4201D0012070BD236813F0020F17D04F
:102F100013F0040F04D0464A536843F4E06353604F
:102F2000236813F0080F04D0414A536843F46053F8
:102F300053603F4A536823F0F003A0680343536093
:102F40000D46236813F0010F31D06368012B20D0A8
:102F5000022B25D0364A126812F0020F64D0344991
:102F60004A6822F0030213434B60FEF76DFE0646EB
:102F70002F4B5B6803F00C036268B3EB820F16D033
:102F8000FEF762FE801B41F288339842F0D903209D
:102F9000B9E7274A126812F4003FE0D10120B2E7F6
:102FA000234A126812F0007FD9D10120ABE71F4BF2
:102FB0001B6803F00703AB420CD91C4A136823F0CB
:102FC00007032B431360136803F00703AB4201D0E0
:102FD000012098E7236813F0040F06D0144A5368C1
:102FE00023F4E063E1680B435360236813F0080F98
:102FF00007D00F4A536823F46053216943EAC103A1
:103000005360FFF731FF0A4B5B68C3F30313094AB0
:10301000D35CD840084B1860084B1868FEF7D0FD09
:10302000002070E70120704701206CE7002002407B
:10303000001002405C85000800000020080000200D
:10304000014B1868704700BF0000002008B5FFF76B
:10305000F7FF044B5B68C3F30223034AD35CD840F9
:1030600008BD00BF001002406C85000808B5FFF7DE
:10307000E7FF044B5B68C3F3C223034AD35CD84029
:1030800008BD00BF001002406C85000810B4036A40
:10309000046A24F001040462846924F0F00444EA20
:1030A000021223F00A030B438261036210BC7047D3
:1030B00010B4036A23F0100303628469036A24F4E2
:1030C000704444EA023223F0A00343EA0113826110
:1030D000036210BC7047836823F07003194341F00A
:1030E000070181607047000090F83D30DBB2012B92
:1030F00001D001207047022380F83D300268D36878
:1031000043F00103D3600368104A934210D0B3F137
:10311000804F0DD0A2F59432934209D002F580621F
:10312000934205D01A6842F001021A6000207047ED
:103130009A6802F00702062A05D01A6842F00102D6
:103140001A60002070470020704700BF002C01402B
:10315000704770477047704710B5044603681A6996
:1031600012F0020F11D0DA6812F0020F0DD06FF0DA
:1031700002021A610123037703689B6913F0030FAE
:1031800070D0FFF7E6FF0023237723681A6912F057
:10319000040F12D0DA6812F0040F0ED06FF00402A0
:1031A0001A610223237723689B6913F4407F5FD061
:1031B0002046FFF7CEFF0023237723681A6912F019
:1031C000080F12D0DA6812F0080F0ED06FF0080264
:1031D0001A61042323772368DB6913F0030F4ED0B1
:1031E0002046FFF7B6FF0023237723681A6912F001
:1031F000100F12D0DA6812F0100F0ED06FF010021C
:103200001A61082323772368DB6913F4407F3DD0DC
:103210002046FFF79EFF0023237723681A6912F0E8
:10322000010F03D0DA6812F0010F36D123681A6952
:1032300012F0800F03D0DA6812F0800F34D12368C7
:103240001A6912F0400F03D0DA6812F0400F32D141
:1032500023681A6912F0200F03D0DA6812F0200FE9
:1032600030D110BDFFF774FF2046FFF773FF8AE7E8
:103270002046FFF76DFF2046FFF76CFF9BE72046D7
:10328000FFF766FF2046FFF765FFACE72046FFF734
:103290005FFF2046FFF75EFFBDE76FF001021A6196
:1032A0002046FEF7CBF9C1E76FF080021A61204695
:1032B00000F023F9C3E76FF040021A612046FFF7E0
:1032C0004AFFC5E76FF020021A61204600F014F9AA
:1032D000C7E7000003681B4A90420AD0B0F1804F54
:1032E00007D0A2F59432904203D002F5806290425A
:1032F00003D123F070034A681343124A90420AD064
:10330000B0F1804F07D0A2F59432904203D002F57D
:103310008062904203D123F44073CA68134323F0C0
:1033200080034A69134303608B68C3620B6883623E
:10333000044B984202D00123436170470B69036339
:10334000F9E700BF002C014038B310B5044690F8EF
:103350003D30EBB1022384F83D30211D2068FFF79A
:10336000B9FF012384F8463084F83E3084F83F30BA
:1033700084F8403084F8413084F8423084F8433097
:1033800084F8443084F8453084F83D30002010BD86
:1033900080F83C30FEF732FBDCE70120704710B4C8
:1033A000846824F47F4442EA03230B43234383606D
:1033B00010BC704790F83C30012B66D010B5044625
:1033C000012380F83C30022380F83D300268936886
:1033D00023F47F4323F0770393600B68402B4AD09C
:1033E00013D9602B3DD01ED9702B28D0B3F5005FC8
:1033F00030D1CB684A6889680068FFF7D0FF22683F
:10340000936843F48043936024E0102B06D004D9E2
:10341000202B03D0302B01D01CE0DBB919462068EB
:10342000FFF759FE16E0502B14D1CA6849680068AE
:10343000FFF72CFE50212068FFF74DFE0AE0CB6815
:103440004A6889680068FFF7AAFF2268936843F01A
:1034500077039360012384F83D30002084F83C001A
:1034600010BDCA6849680068FFF722FE6021206825
:10347000FFF731FEEEE7CA6849680068FFF706FE0D
:1034800040212068FFF727FEE4E702207047000094
:1034900090F83C30012B2BD030B4012380F83C3025
:1034A000022380F83D3003685C689D6824F0700456
:1034B0000A6822435A6003680E4A93420AD0B3F165
:1034C000804F07D0A2F59432934203D002F5806278
:1034D000934204D125F080054A6815439D6001237D
:1034E00080F83D30002380F83C30184630BC7047EF
:1034F00002207047002C01407047704738B50446E1
:103500000268136923F44053C1680B431361836855
:103510000269134342691A430168CB6823F4B0532C
:1035200023F00C031343CB600268536923F4407308
:1035300081690B4353610268124B9A421FD0FFF717
:1035400085FD00EB800000EB800063689B00B0FB12
:10355000F3F00D4DA5FB00325109642202FB11026C
:1035600013013233A5FB03235B0903F0F00202EBE6
:10357000011203F00F03216813448B6038BDFFF77D
:1035800075FDDEE7003801401F85EB512DE9F04164
:1035900005460F4616469846069C2B681B6837EA78
:1035A00003030CBF01230023B3421DD1B4F1FF3F3D
:1035B000F3D02CB1FEF748FBA0EB0800A042ECD9F9
:1035C0002A68D36823F4D073D3602A68536923F040
:1035D00001035361202385F83D3085F83E300023F8
:1035E00085F83C30032000E00020BDE8F08158B3AE
:1035F00010B5044690F83D300BB3242384F83D30D9
:103600002268D36823F40053D3602046FFF776FF87
:103610002268136923F4904313612268536923F0ED
:103620002A0353612268D36843F40053D360002017
:103630002064202384F83D3084F83E3010BD80F8AB
:103640003C30FEF7F9F9D8E7012070472DE9F04149
:1036500082B01E4690F83D30DBB2202B54D1044698
:103660000D469046002954D0002A54D090F83C30A2
:10367000012B52D0012380F83C3000230364212326
:1036800080F83D30FEF7E0FA0746A4F82480A4F85D
:103690002680A368B3F5805F05D04FF000080023B3
:1036A00084F83C3011E0236913B14FF00008F6E7CD
:1036B000A8460025F3E738F8023B2268C3F3080365
:1036C0005360E38C013B9BB2E384E38C9BB273B108
:1036D00000963B46002280212046FFF757FFF0B9B5
:1036E000002DE8D015F8012B23685A60E9E7009611
:1036F0003B46002240212046FFF748FF034680B9A1
:10370000202284F83D2000E00223184602B0BDE8E4
:10371000F0810123F9E70123F7E70223F5E703230B
:10372000F3E70323F1E70000014B1868704700BF7F
:103730000C00002070B50D4E0D4D761BB61006D056
:103740000024013455F8043B9847A642F9D1094EAC
:10375000094D04F0E9FE761BB61006D000240134B2
:1037600055F8043B9847A642F9D170BD0888000877
:10377000088800081088000808880008F0B4860748
:1037800043D0541E002A3ED0CAB2034602E014F1D0
:10379000FF3438D303F8012B9D07F8D1032C2BD924
:1037A000CDB245EA05250F2C45EA054516D9A4F109
:1037B00010073F0903F1200606EB071603F110027C
:1037C00042E9045542E902551032B242F8D104F000
:1037D0000F040137032C03EB07130DD91E462246B5
:1037E000043A032A46F8045BFAD8221F22F00302A7
:1037F0000432134404F003042CB1C9B21C4403F88E
:10380000011B9C42FBD1F0BC704714460346C5E740
:103810000FB410B5074B82B004AC54F8042B1868F1
:1038200023468168019400F007F802B0BDE810401B
:1038300004B070470C0000202DE9F04FD9B01C46B1
:10384000894617460546079003F082F803680C94F2
:1038500018461A9303F086FF18901DB1AB6B002B2E
:1038600000F00581D9F86410B9F90C20C80793B2AB
:1038700002D4990540F11D819E040AD4D9F8641040
:1038800042F4005321F40051A9F80C30C9F8641037
:103890009BB21D0740F1B080D9F81020002A00F03B
:1038A000AB8003F01A020A2A00F0C78000231993A4
:1038B00014931793CDE92D331D93CDE91F33219335
:1038C0001E930993CDE91B332FAB2C939B463B787A
:1038D000CDF82C90002B00F05282252B3C4602D1D3
:1038E0001BE0252B03D014F8013F002BF9D1E51B79
:1038F0007DB1DDE92D3201332A44072BCBE9007578
:10390000CDE92D3200F3CA800BF1080B099B2B4443
:1039100009932378002B00F0328200234FF0FF3907
:1039200098462B2566780A938DF8933004F1010AA6
:103930000AF1010AA6F120035A2B00F22D84DFE8D8
:1039400013F0A2032B042B04F0022B042B042B04F2
:10395000F5022B042B04140321032B0426032B0351
:103960002B04450368026802680268026802680264
:103970006802680268022B042B042B042B042B041E
:103980002B042B049D022B04DC02EB039D029D0201
:103990009D022B042B042B042B04E6032B042B0485
:1039A0009A002B042B042B044A032B0471032B04D1
:1039B0002B0488032B042B042B042B042B042B0433
:1039C0002B042B049D022B04DC02C0009D029D02EF
:1039D0009D02C903C00070002B04AD032B04BA0381
:1039E0009C00D60370002B044A03720027022B04AC
:1039F0002B0477022B0472004946079801F0C0FCA3
:103A0000A0B1D9F86430D80704D4B9F80C309905BE
:103A100040F1AF834FF0FF330993099859B0BDE8E7
:103A2000F08F48F020089AF8006081E7B9F80C3070
:103A300003F01A020A2A7FF439AFB9F90E20002ADE
:103A4000FFF634AFD9F86420D20705D49B0503D420
:103A5000D9F8580002F090FF23463A4649460798A5
:103A600001F04AFC0990099859B0BDE8F08F079819
:103A700002F0ACFDF6E648F0100818F0200F00F058
:103A800064830C9C073424F0070303F108020C92B2
:103A9000D3E9004528F48063002287E12CAA0B9922
:103AA000079803F0FBFE002841F091830DF1BC0B59
:103AB0002CE7D9F8580002F05DFFB9F90C2093B259
:103AC000DAE643469F0640F12C830C9C073424F031
:103AD0000704D4E9000104F108020D4604460C92E3
:103AE000002871F1000205DA2D22644265EB4505DC
:103AF0008DF8932058AAB9F1FF3F089200F0F7849F
:103B0000012254EA050123F0800840F05981B9F1FF
:103B1000000F40F04A86002A40F04A8513F0010366
:103B20000D9300F09C86302358AF07F8013D002329
:103B300010931393CDE915330D9B9DF893204B45BE
:103B4000B8BF4B46089312B1089B0133089318F095
:103B500002030E9302D0089B0233089318F08403EB
:103B60002E9C11933FD10A9B08995D1A002D3ADDD6
:103B7000102D2D9A29DD5946204622961023079CA8
:103B8000BB460B9E04E0103D102D01F1080118DD2D
:103B90000132B74F1030072ACDE92D20C1E900735B
:103BA000F1DD2CAA31462046129303F077FE00285F
:103BB00040F03584DDE92D20103D102D2FA9129BFA
:103BC000E6DC5F4604468B46229E0132A84B2C441D
:103BD000072ACDE92D24CBE9003500F330859DF887
:103BE00093200BF1080B72B101202D9A044402447A
:103BF0000DF19301072ACDE92D24CBE9001000F344
:103C000010840BF1080B0E9B6BB102212D9B0C4411
:103C1000013325AA072BCDE92D34CBE9002100F390
:103C20000D840BF1080B119B802B00F025830D9B5D
:103C3000A9EB0305002D38DD102D2D9A40F3FC86ED
:103C40008C4B59462046BB464FF0100937461C4660
:103C50000B9E04E0103D102D01F1080115DD01322D
:103C60001030072ACDE92D20C1E90049F2DD2CAA48
:103C70003146079803F012FE002840F0D083DDE9BA
:103C80002D20103D102D2FA9E9DC3E4623465F462E
:103C900004468B4601322C44072ACDE92D24CBE97A
:103CA000003500F332840BF1080B18F4807F40F0EC
:103CB00086822D9B0D9A01331444072B2E94CBE959
:103CC00000722D9300F306840BF1080B18F0040F1B
:103CD0003BD00A9B089A9D1A002D36DD102D2D9B96
:103CE00021DD1026079FDDF82C8004E0103D102D0B
:103CF0000BF1080B17DD01335D4A1034072BCDE9BA
:103D00002D34CBE90026F1DD2CAA4146384603F0DC
:103D1000C5FD002840F0A685DDE92D34103D102DAD
:103D20000DF1BC0BE7DC0133514A2C44072BCDE9E4
:103D30002D34CBE9002508DD2CAA0B99079803F058
:103D4000ADFD002840F0DE822E9C0899DDE90932A5
:103D50008A42ACBF9B185B180993002C40F0CA82C2
:103D600000232D93109B1BB11099079802F0D4FCEF
:103D700057460DF1BC0B3B78002B7FF4AEAD2E9B6C
:103D8000DDF82C90002B41F0238100232D93C0E21D
:103D900043469A0640F14B810C9C073424F00702FD
:103DA00002F10801D2E9004501220C910021B9F18C
:103DB000FF3F8DF8931058A908917FF4A2AE984662
:103DC000012A00F09583022A00F0B38258A900E08E
:103DD0003946E20842EA4572E80804F0070305465E
:103DE0001446303354EA050201F8013C01F1FF3773
:103DF000EED118F0010F00F0AC82302B00F0A98258
:103E00003023089A0239521A07F8013C0D920F46E6
:103E10008DE60022A6F130031AF8016B02EB820254
:103E200003EB4202A6F13003092BF5D90A9281E592
:103E3000114B18F0200F1D9300F011810C9C0734DA
:103E400024F0070303F108020C92D3E9004518F0AF
:103E5000010F09D054EA050306D030238DF8956090
:103E600048F002088DF89430022228F480639DE720
:103E7000BC850008CC850008888500080C9C0734A8
:103E800024F0070CDCE90023179323F00043199278
:103E900015461046089319460CF108044FF0FF32FE
:103EA000B84B0C94FCF720FE002840F0DD84284637
:103EB00008994FF0FF32B34BFCF7F8FD002840F0B3
:103EC000D3841B9A19981C9B1799FCF7E5FD0028D1
:103ED00040F0D5859DF8932003200021AA4FAB4BDD
:103EE0000890109128F080080D9089461391CDE933
:103EF0001511472ED8BF1F4625E6002301200C9C34
:103F00001A4621688DF89330109399461393CDE9A2
:103F10001533231D08900D908DF8FC100C933FAFC6
:103F200015E648F001089AF8006001E5079E304662
:103F300002F00EFD436818461E9303F013FC219017
:103F40000446304602F004FD83682093002C3FF4C1
:103F50006AAD9AF80060002B3FF4EAAC1B78002BA6
:103F60003FF4E6AC48F48068E2E40C9B9AF8006009
:103F70001A680433002A0A920C93BFF6D9AC534254
:103F80000A9306E08DF893509AF80060D0E49AF80E
:103F9000006048F00408CBE49AF800600AF10102DE
:103FA0002A2E01F07281A6F13003092B92464FF0C0
:103FB00000093FF6BFAC1AF8016B09EB890903EB66
:103FC0004909A6F13003092BF5D9B3E448F080087C
:103FD0009AF80060ACE400250C9B8DF893501F68A4
:103FE0001C1D002F00F05286B9F1FF3F00F018872A
:103FF0004A462946384602F0CBFF1090002800F0D0
:104000000486A946109BDB1BCDE90C4323EAE3732E
:104010000893CDF84090CDF84C90CDE915999DF8D6
:10402000932090E548F010039A063FF5B5AE0C9A40
:10403000DF0602F1040100F1B2835D060C9A00F183
:1040400018859C0540F1AB831478002501220C9162
:10405000ACE64F4B18F0200F1D937FF4EFAE0C9A97
:1040600018F0100F02F1040340F08F8318F0400F96
:104070000C9A40F0F18418F4007F00F086831478E5
:1040800000250C93E3E69DF893309AF80060002B2E
:104090007FF44EAC20238DF8933049E49AF8006009
:1040A0006C2E03BF9AF8016048F020080AF1010A5B
:1040B00048F010083CE40C9A18F0200F52F8043B2A
:1040C0000C9200F07684099A57461046D117C3E93E
:1040D000000150E69AF80060682E03BF9AF801606C
:1040E00048F400780AF1010A48F0400820E447F655
:1040F00030020C99ADF894200A1D0C92254A0C68E8
:104100001D9248F002030025022278264EE648F070
:1041100008089AF800600BE448F010039F063FF58A
:10412000D4AC0C99DD0601F1040200F142835C0677
:104130000C9900F19684980540F13B8391F9004079
:104140000C92E51720462946CAE40C9A18F0100F85
:1041500002F1040340F01E8318F0400F0C9A40F067
:10416000768418F4007F00F01583147800250C93F2
:1041700090E4D9F8580002F0FFFB4FF0FF330993A9
:104180004BE400BFFFFFEF7F7C85000878850008C7
:104190009C85000888850008002E3FF4F0AD0023C0
:1041A00001211A4608918DF8FC608DF89330109328
:1041B00099461393CDE915330D913FAFC7E4652EB2
:1041C00040F3CC801B9A19981C9B1799FCF75AFC5A
:1041D000002800F0A78101212D9B9F4A0B440C442D
:1041E000072B2E942D93CBE9002100F319840BF1BA
:1041F000080B269B149A2E9C934203DB18F0010FA8
:104200003FF464AD2D9B189A01331A991444072B7F
:10421000CBE90012CDE92D3400F32B850BF1080B0F
:10422000149B5D1E002D7FF751AD102D2D9A40F38C
:10423000CC878A4B10261946079F2346DDF82C9021
:104240000C4605E00BF1080B103D102D40F3CA831E
:1042500001321033072ACDE92D23CBE90046F1DDE9
:104260002CAA4946384603F019FB00284CD1DDE959
:104270002D230DF1BC0BE7E70A9B089A9D1A002D30
:104280007FF7D5AC102D2D9A744B27DD594620466B
:10429000BB461C4637460B9E04E0103D102D01F135
:1042A000080116DD102301321030072ACDE92D2038
:1042B0000C604B60F1DD2CAA3146079803F0EEFA52
:1042C000002840F0AC80DDE92D20103D102D2FA9F5
:1042D000E8DC3E4623465F4604468B4601322C44CA
:1042E000072ACDE92D24CBE9003500F36E830BF1CD
:1042F000080B9CE42CAA0B99079803F0CFFA00282E
:104300003FF42EADDDF82C90109911B1079802F012
:1043100003FAD9F86420B9F80C30D00702D4990513
:1043200040F10E825A063FF575AB099859B0BDE8C9
:10433000F08F1D9858AF230943EA0573290904F04B
:104340000F020D461C46835C07F8013D54EA050345
:10435000F1D1089BDB1B0D93FFF7E9BB621C0D92AB
:10436000149A2D9B012A03F101050BF1080640F375
:10437000528101230D9A072DCBF80070CDE92D5203
:10438000CBF8043000F3E381189B0D9901351A9A9C
:104390001944072D0D91CDE92D51C6E9002300F3F5
:1043A000E78108366C1C11940E94149C1B9A199882
:1043B0001C9B179904F1FF3906F1080BFCF762FB0F
:1043C000002840F0FA800D9B0E9C4B440137072CCF
:1043D0000D9337602E93C6F804902D9400F30F834D
:1043E00006F110035E469B46AA1C0E921F9A0D9979
:1043F000726011440E9A28AB072A0C462E912D921A
:1044000033607FF763AC2CAA0B99079803F046FA48
:1044100000287FF477AF0DF1BC0B2E9C56E4B1461B
:1044200072E72CAA0B99079803F038FA00287FF45A
:1044300069AF0DF1BC0B2E9CFFF7E5BB2CAA0B99C5
:10444000079803F02BFA00287FF45CAF0DF1BC0B4A
:104450002E9CFFF7E8BB00BFB8850008CC8500089C
:1044600001202D9AC04902440444072ACDE92D2495
:10447000CBE9001040F3E3822CAA0B99079803F0D4
:104480000DFA00287FF43EAF269B2E9C0DF1BC0B4D
:104490002BB9149A1AB918F0010F3FF417AC2D9AE2
:1044A000189901321A980C44072A2E94CBE900017E
:1044B0002D9200F30A850BF1080B002BC0F29285B8
:1044C000149B01321C44072ACDE92D24CBE900734B
:1044D0007FF7FAAB2CAA0B99079803F0DFF90028B5
:1044E0007FF410AF2E9C0DF1BC0BFFF7EFBB98468D
:1044F000002D08BF0A2C80F06381012358AF3034AF
:1045000007F8014D0D93FFF712BB2CAA0B990798E2
:1045100003F0C4F900287FF4F5AE0DF1BC0B2E9C1E
:10452000FFF7C3BB269B002B9ADDDDE914239342E2
:10453000A8BF1346002B1D460BDD2D9B2C440133D9
:10454000072B2E94CBE900752D9300F39E820BF17F
:10455000080B159B002DA8BF5B1B002B1D4640F3CD
:104560008D80102B2D9A40F38486804B214618466F
:1045700010265B46DDF81C90BB460B9C074603E00B
:104580000833103D102D69DD01321031072ACDE9C5
:104590002D21C3E90076F3DD2CAA2146484603F01D
:1045A0007DF9002840F06984DDE92D212FABE8E793
:1045B000CDF8349058AFFFF7BABAB9F1000F7FF7D2
:1045C00015AFB9F1100F40F32D86684B102719462F
:1045D0000D9A3346DDF81CB00B9C119D0E4607E08A
:1045E0000833A9F11009B9F1100F40F32883013500
:1045F0001032072DCDE92D52C3E90067F0DD2CAA5A
:104600002146584603F04AF9002840F03684DDE997
:104610002D522FABE5E718F0010F7FF4AAAE01226F
:104620000D99072DCBF80070CDE92D51CBF8042062
:1046300000F3378202330E930BF1100BD6E62CAA4F
:104640000B99079803F02AF900287FF45BAE0DF16F
:10465000BC0B9DF893202E9CFFF7C5BA0C4639463B
:104660005F469B460B4601322C44072ACDE92D2498
:10467000CBE9003500F39F840BF1080B159B18F470
:10468000806F3B44994640F02783269B149A9342BF
:1046900047DB18F0010F44D1149ABD18A5EB0905AA
:1046A000D31A9D42A8BF1D46002D0BDD2D9A2C4428
:1046B0000132072A2E94CBE900952D9200F36384F2
:1046C0000BF1080B002DB4BF1D465D1B002D7FF7BD
:1046D000FDAA102D2D9A40F37885244B10261946FB
:1046E000079F2346DDF82C900C4605E00BF1080BE4
:1046F000103D102D40F3768101321033072ACDE9A9
:104700002D23CBE90046F1DD2CAA4946384603F0BB
:10471000C5F800287FF4F8ADDDE92D230DF1BC0BC1
:10472000E6E72D9A189901321A980C44072A2E941C
:10473000CBE900012D9200F375820BF1080BABE77A
:10474000D9F8580002F018F9B9F80C30EAE52CAAAB
:104750000B99079803F0A2F800287FF4D3AD2E9BA5
:104760002FAE0D932D9D0FE6B8850008CC8500086F
:104770002CAA0B99079803F091F800287FF4C2AD9A
:104780002E9B2FAE0D932D9D0CE6146800250C93E7
:10479000FFF75DBB146800250C93FFF77BB9146825
:1047A000002501220C91FFF701BB012A7FF40BAB1E
:1047B000A3E60C680C92E51720462946FFF790B94E
:1047C000002208F48063CDF834A01096CDF838802C
:1047D00058AF9246DDF880801E460AE02046294602
:1047E00000230A22FCF7BEF904460D4654EA0503ED
:1047F00029D00A22002320462946FCF7B3F930329B
:1048000007F8012C0AF1010A013F002EE6D098F8C2
:1048100000309A45E2D1BAF1FF0FDFD0002D08BF7A
:104820000A2CDBD3219B1E99FF1A1A46384602F048
:10483000C7FF98F80130002B00F0528408F10108FE
:104840004FF0000ACAE7089BCDF88080DB1BCDF84B
:1048500050A0109EDDE90DA80D93FFF768B958AF81
:10486000FFF765B9C1464FE5199C22462046179CC3
:1048700023462146FCF738F9002840F0AC84612E2D
:1048800000F02081412E00F0918326F0200348F4AF
:104890008072B9F1FF3F08931292179D00F02384B4
:1048A000472B00F02484002DC0F2EA82199BCDE949
:1048B00010000D93662E00F0E583462E00F06D8407
:1048C0000220089B2AA9452B06BF09F101030E937C
:1048D000CDF838900E9C0491CDE9000426A927A8B4
:1048E000CDE902100D9A2B46079800F051FE672E75
:1048F000074640F0A48418F0010F40F0FE832A9B85
:104900004046DB1BDDF848801493269B1593089BDB
:10491000472B00F0CB81089B462B00F0EE820899D4
:10492000159BF2B2412908BF0F3203F1FF3306BFD6
:10493000D2B201210021002B8DF8A020B4BF2D227E
:104940002B222693B8BF159B8DF8A120B8BFC3F1C9
:104950000103092B00F3EA83002940F0868430220A
:104960008DF8A2200DF1A30230331370531C28AA36
:104970009B1A149A1F93012A13440D9340F34D84FC
:104980000D9B189A13440D9300231393CDE915330F
:104990000D9B20F4806023EAE37340F48078089351
:1049A000119B002B40F0468299469DF89320FFF71B
:1049B000CAB818F0100F45D118F0400F00F09482DB
:1049C000099A57461A80FFF7D6B92CAA0B9907986F
:1049D00002F064FF00287FF495AC0DF1BC0B2E9C17
:1049E000FFF725B921461C460B4601322C44072A05
:1049F000CDE92D24CBE900357FF766A96AE52CAA1D
:104A00000B99079802F04AFF00287FF47BACDDE9A0
:104A10002D3201330D920E930DF1C40B2FAEE5E450
:104A20002CAA0B99079802F039FF00287FF46AAC92
:104A30000DF1BC0BFFF7DDBBA24BFFF72BB90BF160
:104A4000080B25E5099A57461A60FFF794B91488B0
:104A500000250C93FFF71EB8148800250C93FFF770
:104A6000F6B9B1F900400C92E51720462946FFF748
:104A700037B81488002501220C91FFF797B92D2330
:104A80001A468DF89330FFF727BA2CAA0B9907988E
:104A900002F004FF00287FF435AC0DF1BC0B2E9C16
:104AA00057E52CAA0B99079802F0F8FE00287FF42E
:104AB00029ACDDE92D3201332FAE0D920E930DF1AD
:104AC000C40B93E430238DF894307823B9F1630F4D
:104AD0008DF8953048F0020400F3C18248F48173E8
:104AE000129326F0200308930023A046179D1093ED
:104AF0003FAF002DC0F2C581199B179D0D93002378
:104B00001193612E00F09582412E7FF4D3AE26AA38
:104B10000D98294602F09EFD00224FF07F53FBF7CF
:104B200049FDDDE91B23CDE90E01FBF7ABFF0028B2
:104B300040F0E782644B0D93CDE913A609F1FF35F0
:104B4000CDE915B92397B946DDE90E67CDF8888020
:104B5000DDF834A005E0DDE91B23FBF793FFF8B98E
:104B6000A1460022594B30463946FBF723FD0F463C
:104B70000646FBF7CFFF8046FBF7B2FC0B4602462A
:104B800039463046FBF75EFB4C461AF808C06B1CF2
:104B9000AB4606460F4604F801CB05F1FF35DAD1E6
:104BA0003046394600224A4BDDF84CA0149E45465B
:104BB000CDF85090CDF84CB0DDF88880DDF85890F5
:104BC000DDF854B0239FCDE90E01FBF783FF0028E9
:104BD00040F05F81DDE90E0100223D4BFBF752FF03
:104BE00010B1EA0700F15581139B002B07DB30223F
:104BF000139B0133234404F8012BA342FBD1E31B95
:104C000040461493DDF848807FE6CDF82090CDF83B
:104C100034900C9481461390CDE915009DF89320B3
:104C2000FEF791BF2CAA0B99079802F037FE0028D7
:104C30007FF468AB0DF1BC0B269B2E9C2CE50D92EE
:104C400032461E4613466A1C0E9206F108020D9962
:104C5000C6E900390E9B4944072B0D912E912D93E7
:104C60003FF7CDAE01330E9302F1080B1646FFF766
:104C7000BDBB2CAA0B99079802F010FE00287FF408
:104C800041AB0DF1BC0B2E9CFFF7CABA4B46062B6D
:104C900028BF0623B9461397CDE9157710973A46F2
:104CA0000893CDE90C430B4FFEF74DBF159BDA1C63
:104CB00002DB994580F2C580023E26F0200308936E
:104CC0002DE600BFCC8500089C8500080000304020
:104CD0000000E03FB08500082146149BCDF838A0C5
:104CE000FB181297B04E4F46DDF82CA0DDF81C9053
:104CF0000D935A46CDF84480DDE9208B169B002B9E
:104D00005AD0139B002B53D1169B08F1FF38013B5F
:104D100016932D9B1E9801335944072B2E91C2E9FF
:104D2000000B2D9368DC08320D9898F80030C51BF5
:104D30009D42A8BF1D46002D0BDD2D9B294401334C
:104D4000072B2E91C2E900752D935EDC98F8003098
:104D50000832002DB4BF1D465D1B002D26DD102D31
:104D60002D983CDD102403E00832103D102D36DD77
:104D7000013010310728CDE92D01C2E90064F3DDCF
:104D80002CAA5146484602F089FD00284FD1DDE9A2
:104D90002D012FAAE9E72CAA5146484602F07EFDD4
:104DA000002844D198F800302E992FAA1F44A5E777
:104DB000139B013B1393ACE7139B002BF8D1B9462F
:104DC000149B129FCDF88080FB189945DDF838A020
:104DD0009346DDF844800C4628BF994655E40130DF
:104DE00029440728CDE92D01C2E90065D3DC98F8F4
:104DF000003008321F4481E72CAA5146484602F091
:104E00004DFDA0B92FAA2E998EE72CAA51464846EF
:104E100002F044FD58B92FAA98F800302E9998E76F
:104E2000384602F09FFCA9460346FFF7EDB8D1468D
:104E3000FFF76ABA2D224FF000098DF89320FEF794
:104E400083BE149B1946159B994200F39280C407B8
:104E500040F19A81189A13440D93410540F18380E3
:104E6000159B002B00F32A8267260D9B23EAE37330
:104E7000089300231393169392E5A146FFF744BAD3
:104E80001090199B0D93179B03F100452D2311934F
:104E900037E6149B2A930D9B14F8012CD97B2346EB
:104EA000914209D1302003F8010C2A9B5A1E2A9204
:104EB00013F8012C9142F6D0392A0BBF0D9A01321A
:104EC000927AD2B203F8012C99E62CAA0B99079892
:104ED00002F0E4FC00287FF415AADDE92D240DF191
:104EE000BC0B269BFFF7E9BA18F4007F3FF4AAAD8C
:104EF000099A57461A70FEF73EBF159B002B40F3E8
:104F00009481159BB9F1000F40F04181C60700F173
:104F10003E8166260D93430526D5002320981393E2
:104F20001693159A0378FF2B0BD0934209DA417838
:104F3000D21AA1B1169B0130013316930B46FF2BF9
:104F4000F3D11592169B139A0D991344219A209030
:104F500002FB03130D9323EAE373089320E51399EF
:104F600001311391DFE767260D9B23EAE373089372
:104F70007FE7149B189A13440D93159B002B40F365
:104F80003D816726C7E72CAA0B99079802F086FC9B
:104F900000287FF4B7A9269B149A0DF1BC0B2E9C18
:104FA000D31AFFF78FBB00BFCC85000830225823EF
:104FB0008DF894208AE52CAA0B99079802F06EFCD4
:104FC00000287FF49FA90DF1BC0B2E9CFFF756BB68
:104FD00007982CAA494602F061FC00287FF499A9A1
:104FE000FEF7D3BE5D42103380F26E81BC4B1026BB
:104FF0001946DDF81C9023460C4605E00BF1080B22
:10500000103D102D40F3828001321033072ACDE984
:105010002D23CBE90046F1DD2CAA0B99484602F07E
:105020003DFC00287FF46EA9DDE92D230DF1BC0BBA
:10503000E6E726AA0D98294602F00CFB00224FF065
:105040007F53FBF7B7FADDE91B23CDE90E01FBF730
:1050500019FD08B101232693A24B0D936CE509F1CC
:105060000101079801F002FD0746002800F02E819B
:1050700048F48173129326F020030893A046179DED
:10508000109036E503202AA9CDE90009049127A84C
:1050900026A9CDE902100D9A2B46079800F078FA60
:1050A0000746CDF8389000EB09043B78302B00F030
:1050B000CE80269B1C441B9A0D981C9B2946FBF70F
:1050C000E1FC08B123461BE42A9BA342BFF418ACC1
:1050D00030215A1C2A9219702A9B9C42F9D80FE45D
:1050E0009A46FFF77BBB10904FF0060901E5B9F136
:1050F000000F00F08D801090FBE40E9B3B441C469B
:10510000D9E701232693784B0D9315E521461C46DC
:105110000B4601322C44072ACDE92D24CBE900357A
:1051200000F3BE800BF1080BFFF7CAB90DF1AF0C0D
:1051300064466E4D00E01446A5FB0321C90801EB4F
:105140008102A3EB42023032092904F8012C0B46FC
:1051500004F1FF32EFDC3033023CDBB2A44502F84D
:10516000013C40F2AD800DF1A204114601E011F8BE
:10517000013B8C4504F8013BF9D12CAB9B1A0DF196
:10518000A2021344FFF7F3BB159B0D9365E6189A33
:10519000662613444B440D93BDE603202AA9CDE9AE
:1051A0000009049127A826A9CDE902100D9A2B46E3
:1051B000079800F0EDF90746CDF838900E9B462E83
:1051C00007EB03043FF471AF75E7454B0DE4DDF8E1
:1051D0002C90FFF79EB8179B0320002BB8BF2D2300
:1051E0004FF00001BABF1A468DF893309DF8932016
:1051F000089010913E4F3F4BFEF774BE0D9AC3F1DD
:1052000001031A4422EAE2730D920893672630E6FE
:10521000CDF840904FF001096BE4C3077FF5B4ABC4
:10522000FFF7AEBB5A462E4B11E5B9F1000F23D163
:10523000C50721D40123662608930D9319E6472E4E
:105240007FF45BAF18F0010F3FF459ABB6E71B9A40
:105250000D981C9B2946FBF715FC00287FF429AF0D
:105260000E9BC3F10103269324E70DF1A202FFF781
:105270007BBB1B4BFFF7F7B9189B662601334B44EA
:105280000D9323EAE3730893F3E50C999AF8016010
:105290000B68924643EAE3790B1D0C93FEF748BB7B
:1052A0002CAA0B99079802F0F9FA00287FF42AA893
:1052B000DDE92D240DF1BC0BFFF702B967262CE6C2
:1052C0000DF1A203FFF753BB054B22E7DDF82C904D
:1052D000B9F80C3043F04003A9F80C30FFF719B8C7
:1052E000CC850008888500089C850008CDCCCCCCF6
:1052F00084850008808500082DE9F0410C464FF0B8
:10530000000C4FF48065064617469846626EE389A6
:105310008989ADF58D6D21F002011992ADF80E303D
:10532000E269636AADF80C1016A81AA9CDF818C086
:1053300007920993009104910295059501F016FBDF
:1053400043463A4669463046FEF776FA051E07DBC5
:105350003046694601F0DEF8002818BF4FF0FF35EF
:10536000BDF80C305B0603D5A38943F04003A3814D
:10537000169801F0FDFA28460DF58D6DBDE8F08117
:1053800038B5314B054618680C4610B1836B002BBD
:105390003AD0B4F90C2093B218070CD52069A8B103
:1053A00013F0010220D000226369A2605B42A36176
:1053B00000B3002038BDD9063DD5580727D4206951
:1053C00042F00803A3819BB20028E9D103F42072C4
:1053D000B2F5007FE4D02846214601F0FDFAA3890A
:1053E000206913F00102DED1990758BF6269A260FB
:1053F0000028DED1B4F90C301A06DBD543F04003A7
:10540000A3814FF0FF3038BD01F0E0F8C1E7216B18
:1054100051B104F14003994204D0284601F07CF9CF
:10542000B4F90C20002323630023206922F0240216
:10543000C4E90003C4E7092342F040022B604FF0A7
:10544000FF30A28138BD00BF0C000020024B13B119
:10545000024800F005B870470000000045660008EB
:10546000002301461A46184602F038BA2DE9F04FDB
:1054700003690E6983B0B342C0F28680013E01F138
:10548000140800F1140958F8263059F82670013331
:10549000B7FBF3F7B300009308EB030A4B44019307
:1054A000002F3BD00023C6461C46CC465EF8042B9A
:1054B000DCF800501FFA82FB07FB0B33120C4FEA9B
:1054C000134B07FB02BB9AB2A21AABB21FFA8BF4C2
:1054D0001A44C4EB154404EB224492B242EA04425B
:1054E000F2454CF8042B4FEA24444FEA1B43DDD22B
:1054F000009B59F803308BB9019A131F99450CD2C0
:1055000052F8043C4BB9A2F1080302E01A68043BCC
:105510001AB9994506F1FF36F8D30661044601F041
:10552000A5FF00282CDB4D460023013758F8041B4B
:1055300028688AB29A1A0B0C81B20A44C3EB104352
:1055400003EB224392B242EA0342C24545F8042BE0
:105550004FEA2343EAD259F8262009EB86037AB9A9
:105560001A1F91450BD253F8042C42B9083B02E0B4
:105570001A68043B1AB9994506F1FF36F8D326613B
:10558000384603B0BDE8F08F002003B0BDE8F08FCF
:105590002DE9F04F1F461646036C99B00446CDE93D
:1055A00002674BB10122456C1946AA40C3E901527A
:1055B00001F066FD002323643E1EB4BF01230023D7
:1055C000259AB8BF26F000461360754BB8BF039606
:1055D000B34300F0A380DDE90289002200234046A6
:1055E0004946FBF74FFA074678B10123249A136026
:1055F000269B002B00F0BF806A4B269A03F1FF39EF
:105600001360484619B0BDE8F08F16AA17ABCDE974
:105610000032204642464B4601F0C4FF350D83461A
:1056200040F09C80DDE91685454405F23243202B8D
:1056300040F33184C3F140039E40029B05F21240C7
:1056400023FA00F03043FAF73BFF0122013D0A92B2
:10565000A1F1F8710022544BFAF7F4FD4AA3D3E903
:105660000023FAF7A7FF4AA3D3E90023FAF7ECFDDA
:10567000064628460F46FAF733FF47A3D3E900232F
:10568000FAF798FF02460B4630463946FAF7DCFD3A
:1056900006460F46FBF73EFA0022059000233046EF
:1056A0003946FBF7F9F9002840F07782059E162E5F
:1056B00000F26182DDE902233C4901EBC601D1E938
:1056C0000001FBF707FA002800F0E183731E059341
:1056D00000230D93A8EB0505B5F1010A00F15782EF
:1056E00000230693059B002BC0F248829A440C933A
:1056F00000230B93229B092B60D8052B40F3C98311
:105700000026043B2293229B023B032B00F2A18440
:10571000DFE813F0E603C803F003FC0442F20F7362
:10572000249A1360029B83B9C6F313066EB9269BB5
:10573000DFF87C90002B3FF464AF09F10803484682
:10574000269A136019B0BDE8F08F269BDFF86490AD
:10575000002B3FF456AF09F10303F0E7C9F313033D
:1057600043F07F514046A5F2FF350A9741F44011BE
:10577000DDF858806EE7DFF84090484619B0BDE884
:10578000F08F00BFAFF3008061436F63A787D23F04
:10579000B3C8608B288AC63FFB799F501344D33F20
:1057A0000000F07FB98500080000F83F1886000867
:1057B000DC850008E8850008B88500084FF0FF3553
:1057C00001260023CDE90856229323930021149546
:1057D0006164204601F02EFC0E2D8146206400F20B
:1057E000FE80002E00F0FB80DDE9022316461F46F6
:1057F0000599CDE90E67002940F3E9839B4B01F041
:105800000F020D1103EBC203D3E90012CDE902121E
:10581000EA0640F1A084964B3946D3E90823304686
:10582000FAF7F2FF0327CDE9100105F00F057DB16E
:10583000DDE902018E4EEB0704D5D6E90023FAF725
:10584000B9FE01376D1006F10806F4D1CDE9020169
:10585000DDE90223DDE91001FAF7D6FFCDE9020107
:105860000D9B43B1DDE902010022824BFBF714F9E5
:10587000002840F009853846FAF732FEDDE90223B8
:10588000FAF798FE7C4B0022FAF7DEFC089B0546EF
:10589000A1F15076002B00F01E84059B1593089B08
:1058A0001093DDE90201FBF735F9109A6F4B00F117
:1058B000300803EBC20353E90212CDE91212FAF7E2
:1058C0000FFE0B460246DDE90201CDE90256FAF76A
:1058D000B9FC099B5FFA88F806460F4609F10105F5
:1058E000002B00F06384DDE9122300206349FAF7FE
:1058F0008BFFDDE90223FAF7A5FC89F80080324628
:105900003B46CDE90201FBF7E5F8002840F00E85A3
:1059100032463B4600205749FAF794FC02460B46B4
:10592000DDE90201FBF7D6F8002840F00985109A5E
:10593000012A50D04A44CDF848A0CDF840B0A04646
:10594000DDE902ABCDF8089091460EE032463B46C9
:1059500000204849FAF776FC52465B46FBF79CF874
:10596000002840F0E6844D452ED05046594600228E
:10597000434BFAF71FFE0022414B82468B463046CE
:105980003946FAF717FE0F460646FBF7C3F80446FA
:10599000FAF7A6FD02460B4630463946FAF752FCA6
:1059A0003034E4B205F8014B52465B4606460F46DA
:1059B000FBF772F80028C9D0159BDDF840B0DDF880
:1059C00008904446059339E24446DDF848A0DDF8E6
:1059D00040B0DDF80890DDE90E23CDE90223179BE6
:1059E000002BC0F2A980059A0E2A00F3A5801F4B58
:1059F00003EBC203D3E90023CDE90623239B002B4D
:105A0000C0F2C182DDE90267DDE90623304639468E
:105A1000FAF7FAFEFBF77EF88046FAF761FDDDE95A
:105A20000623FAF7C7FD02460B4630463946FAF719
:105A300009FC089E08F13005012E89F80050024645
:105A40000B4609F101054CD000220D4BFAF7B2FDCF
:105A50000022002306460F46FBF714F8002840F00A
:105A6000ED81CDF808B0DDE906AB18E01886000836
:105A7000F08500080000F03F00001C400000E03FFF
:105A8000000024400022C64BFAF794FD00220023B8
:105A900006460F46FAF7F6FF002840F041835246CB
:105AA0005B4630463946FAF7AFFEFBF733F88046DF
:105AB000FAF716FD52465B46FAF77CFD02460B46A6
:105AC00030463946FAF7BEFB08F1300605F8016B9F
:105AD000089FA5EB0906B74202460B46D2D1DDF876
